{
  "_format": "hh-sol-artifact-1",
  "contractName": "Voting",
  "sourceName": "contracts/Voting.sol",
  "abi": [
    {
      "inputs": [],
      "stateMutability": "nonpayable",
      "type": "constructor"
    },
    {
      "inputs": [
        {
          "internalType": "string",
          "name": "name",
          "type": "string"
        }
      ],
      "name": "addCandidate",
      "outputs": [],
      "stateMutability": "nonpayable",
      "type": "function"
    },
    {
      "inputs": [],
      "name": "authority",
      "outputs": [
        {
          "internalType": "address",
          "name": "",
          "type": "address"
        }
      ],
      "stateMutability": "view",
      "type": "function"
    },
    {
      "inputs": [
        {
          "internalType": "uint256",
          "name": "",
          "type": "uint256"
        }
      ],
      "name": "candidates",
      "outputs": [
        {
          "internalType": "string",
          "name": "name",
          "type": "string"
        },
        {
          "internalType": "uint256",
          "name": "voteCount",
          "type": "uint256"
        }
      ],
      "stateMutability": "view",
      "type": "function"
    },
    {
      "inputs": [
        {
          "internalType": "bytes",
          "name": "encryptedBallot",
          "type": "bytes"
        },
        {
          "internalType": "bytes32",
          "name": "commitment",
          "type": "bytes32"
        }
      ],
      "name": "castVote",
      "outputs": [],
      "stateMutability": "nonpayable",
      "type": "function"
    },
    {
      "inputs": [],
      "name": "electionActive",
      "outputs": [
        {
          "internalType": "bool",
          "name": "",
          "type": "bool"
        }
      ],
      "stateMutability": "view",
      "type": "function"
    },
    {
      "inputs": [],
      "name": "electionEndTime",
      "outputs": [
        {
          "internalType": "uint256",
          "name": "",
          "type": "uint256"
        }
      ],
      "stateMutability": "view",
      "type": "function"
    },
    {
      "inputs": [],
      "name": "endElection",
      "outputs": [],
      "stateMutability": "nonpayable",
      "type": "function"
    },
    {
      "inputs": [],
      "name": "getCandidates",
      "outputs": [
        {
          "components": [
            {
              "internalType": "string",
              "name": "name",
              "type": "string"
            },
            {
              "internalType": "uint256",
              "name": "voteCount",
              "type": "uint256"
            }
          ],
          "internalType": "struct Voting.Candidate[]",
          "name": "",
          "type": "tuple[]"
        }
      ],
      "stateMutability": "view",
      "type": "function"
    },
    {
      "inputs": [],
      "name": "getTotalVotes",
      "outputs": [
        {
          "internalType": "uint256",
          "name": "",
          "type": "uint256"
        }
      ],
      "stateMutability": "view",
      "type": "function"
    },
    {
      "inputs": [
        {
          "internalType": "address",
          "name": "",
          "type": "address"
        }
      ],
      "name": "hasVoted",
      "outputs": [
        {
          "internalType": "bool",
          "name": "",
          "type": "bool"
        }
      ],
      "stateMutability": "view",
      "type": "function"
    },
    {
      "inputs": [
        {
          "internalType": "address",
          "name": "",
          "type": "address"
        }
      ],
      "name": "isRegisteredVoter",
      "outputs": [
        {
          "internalType": "bool",
          "name": "",
          "type": "bool"
        }
      ],
      "stateMutability": "view",
      "type": "function"
    },
    {
      "inputs": [
        {
          "internalType": "uint256[]",
          "name": "voteCounts",
          "type": "uint256[]"
        }
      ],
      "name": "publishResults",
      "outputs": [],
      "stateMutability": "nonpayable",
      "type": "function"
    },
    {
      "inputs": [
        {
          "internalType": "address",
          "name": "voter",
          "type": "address"
        }
      ],
      "name": "registerVoter",
      "outputs": [],
      "stateMutability": "nonpayable",
      "type": "function"
    },
    {
      "inputs": [
        {
          "internalType": "uint256",
          "name": "durationSeconds",
          "type": "uint256"
        }
      ],
      "name": "startElection",
      "outputs": [],
      "stateMutability": "nonpayable",
      "type": "function"
    },
    {
      "inputs": [
        {
          "internalType": "address",
          "name": "",
          "type": "address"
        }
      ],
      "name": "votes",
      "outputs": [
        {
          "internalType": "bytes",
          "name": "encryptedBallot",
          "type": "bytes"
        },
        {
          "internalType": "bytes32",
          "name": "commitment",
          "type": "bytes32"
        }
      ],
      "stateMutability": "view",
      "type": "function"
    }
  ],
  "bytecode": "0x608060405234801561001057600080fd5b50336000806101000a81548173ffffffffffffffffffffffffffffffffffffffff021916908373ffffffffffffffffffffffffffffffffffffffff1602179055506120ee806100606000396000f3fe608060405234801561001057600080fd5b50600436106100f55760003560e01c80637ed628bb11610097578063b9b1890911610066578063b9b189091461024d578063bf7e214f14610269578063d8bff5a514610287578063da36cffe146102b8576100f5565b80637ed628bb146101d757806384d1d91e146101f55780639a0e7d66146102115780639e136e641461022f576100f5565b806338db6dd3116100d357806338db6dd314610179578063462e91ec1461019557806359f78468146101b15780636d32dc4b146101bb576100f5565b806306a49fce146100fa57806309eef43e146101185780633477ee2e14610148575b600080fd5b6101026102e8565b60405161010f919061106f565b60405180910390f35b610132600480360381019061012d9190611103565b6103e3565b60405161013f919061114b565b60405180910390f35b610162600480360381019061015d9190611192565b610403565b604051610170929190611218565b60405180910390f35b610193600480360381019061018e9190611103565b6104bf565b005b6101af60048036038101906101aa919061137d565b6105f8565b005b6101b961073c565b005b6101d560048036038101906101d09190611192565b610835565b005b6101df61098b565b6040516101ec919061114b565b60405180910390f35b61020f600480360381019061020a919061148e565b61099e565b005b610219610b2f565b60405161022691906114d7565b60405180910390f35b610237610b39565b60405161024491906114d7565b60405180910390f35b610267600480360381019061026291906115c9565b610b3f565b005b610271610dd7565b60405161027e9190611634565b60405180910390f35b6102a1600480360381019061029c9190611103565b610dfb565b6040516102af9291906116b3565b60405180910390f35b6102d260048036038101906102cd9190611103565b610ea7565b6040516102df919061114b565b60405180910390f35b60606002805480602002602001604051908101604052809291908181526020016000905b828210156103da578382906000526020600020906002020160405180604001604052908160008201805461033f90611712565b80601f016020809104026020016040519081016040528092919081815260200182805461036b90611712565b80156103b85780601f1061038d576101008083540402835291602001916103b8565b820191906000526020600020905b81548152906001019060200180831161039b57829003601f168201915b505050505081526020016001820154815250508152602001906001019061030c565b50505050905090565b60046020528060005260406000206000915054906101000a900460ff1681565b6002818154811061041357600080fd5b906000526020600020906002020160009150905080600001805461043690611712565b80601f016020809104026020016040519081016040528092919081815260200182805461046290611712565b80156104af5780601f10610484576101008083540402835291602001916104af565b820191906000526020600020905b81548152906001019060200180831161049257829003601f168201915b5050505050908060010154905082565b60008054906101000a900473ffffffffffffffffffffffffffffffffffffffff1673ffffffffffffffffffffffffffffffffffffffff163373ffffffffffffffffffffffffffffffffffffffff161461054d576040517f08c379a0000000000000000000000000000000000000000000000000000000008152600401610544906117b5565b60405180910390fd5b600060149054906101000a900460ff161561059d576040517f08c379a000000000000000000000000000000000000000000000000000000000815260040161059490611821565b60405180910390fd5b6001600360008373ffffffffffffffffffffffffffffffffffffffff1673ffffffffffffffffffffffffffffffffffffffff16815260200190815260200160002060006101000a81548160ff02191690831515021790555050565b60008054906101000a900473ffffffffffffffffffffffffffffffffffffffff1673ffffffffffffffffffffffffffffffffffffffff163373ffffffffffffffffffffffffffffffffffffffff1614610686576040517f08c379a000000000000000000000000000000000000000000000000000000000815260040161067d906117b5565b60405180910390fd5b600060149054906101000a900460ff16156106d6576040517f08c379a00000000000000000000000000000000000000000000000000000000081526004016106cd906118b3565b60405180910390fd5b6002604051806040016040528083815260200160008152509080600181540180825580915050600190039060005260206000209060020201600090919091909150600082015181600001908161072c9190611a7f565b5060208201518160010155505050565b60008054906101000a900473ffffffffffffffffffffffffffffffffffffffff1673ffffffffffffffffffffffffffffffffffffffff163373ffffffffffffffffffffffffffffffffffffffff16146107ca576040517f08c379a00000000000000000000000000000000000000000000000000000000081526004016107c1906117b5565b60405180910390fd5b600060149054906101000a900460ff16610819576040517f08c379a000000000000000000000000000000000000000000000000000000000815260040161081090611b9d565b60405180910390fd5b60008060146101000a81548160ff021916908315150217905550565b60008054906101000a900473ffffffffffffffffffffffffffffffffffffffff1673ffffffffffffffffffffffffffffffffffffffff163373ffffffffffffffffffffffffffffffffffffffff16146108c3576040517f08c379a00000000000000000000000000000000000000000000000000000000081526004016108ba906117b5565b60405180910390fd5b600060149054906101000a900460ff1615610913576040517f08c379a000000000000000000000000000000000000000000000000000000000815260040161090a90611c09565b60405180910390fd5b60006002805490501161095b576040517f08c379a000000000000000000000000000000000000000000000000000000000815260040161095290611c75565b60405180910390fd5b6001600060146101000a81548160ff02191690831515021790555080426109829190611cc4565b60018190555050565b600060149054906101000a900460ff1681565b60008054906101000a900473ffffffffffffffffffffffffffffffffffffffff1673ffffffffffffffffffffffffffffffffffffffff163373ffffffffffffffffffffffffffffffffffffffff1614610a2c576040517f08c379a0000000000000000000000000000000000000000000000000000000008152600401610a23906117b5565b60405180910390fd5b600060149054906101000a900460ff1615610a7c576040517f08c379a0000000000000000000000000000000000000000000000000000000008152600401610a7390611d44565b60405180910390fd5b600280549050815114610ac4576040517f08c379a0000000000000000000000000000000000000000000000000000000008152600401610abb90611db0565b60405180910390fd5b60005b600280549050811015610b2b57818181518110610ae757610ae6611dd0565b5b602002602001015160028281548110610b0357610b02611dd0565b5b9060005260206000209060020201600101819055508080610b2390611dff565b915050610ac7565b5050565b6000600554905090565b60015481565b600060149054906101000a900460ff16610b8e576040517f08c379a0000000000000000000000000000000000000000000000000000000008152600401610b8590611b9d565b60405180910390fd5b600154421115610bd3576040517f08c379a0000000000000000000000000000000000000000000000000000000008152600401610bca90611e93565b60405180910390fd5b600360003373ffffffffffffffffffffffffffffffffffffffff1673ffffffffffffffffffffffffffffffffffffffff16815260200190815260200160002060009054906101000a900460ff16610c5f576040517f08c379a0000000000000000000000000000000000000000000000000000000008152600401610c5690611eff565b60405180910390fd5b600460003373ffffffffffffffffffffffffffffffffffffffff1673ffffffffffffffffffffffffffffffffffffffff16815260200190815260200160002060009054906101000a900460ff1615610cec576040517f08c379a0000000000000000000000000000000000000000000000000000000008152600401610ce390611f6b565b60405180910390fd5b6001600460003373ffffffffffffffffffffffffffffffffffffffff1673ffffffffffffffffffffffffffffffffffffffff16815260200190815260200160002060006101000a81548160ff021916908315150217905550604051806040016040528083815260200182815250600660003373ffffffffffffffffffffffffffffffffffffffff1673ffffffffffffffffffffffffffffffffffffffff1681526020019081526020016000206000820151816000019081610dad9190611fe6565b506020820151816001015590505060056000815480929190610dce90611dff565b91905055505050565b60008054906101000a900473ffffffffffffffffffffffffffffffffffffffff1681565b6006602052806000526040600020600091509050806000018054610e1e90611712565b80601f0160208091040260200160405190810160405280929190818152602001828054610e4a90611712565b8015610e975780601f10610e6c57610100808354040283529160200191610e97565b820191906000526020600020905b815481529060010190602001808311610e7a57829003601f168201915b5050505050908060010154905082565b60036020528060005260406000206000915054906101000a900460ff1681565b600081519050919050565b600082825260208201905092915050565b6000819050602082019050919050565b600081519050919050565b600082825260208201905092915050565b60005b83811015610f2d578082015181840152602081019050610f12565b60008484015250505050565b6000601f19601f8301169050919050565b6000610f5582610ef3565b610f5f8185610efe565b9350610f6f818560208601610f0f565b610f7881610f39565b840191505092915050565b6000819050919050565b610f9681610f83565b82525050565b60006040830160008301518482036000860152610fb98282610f4a565b9150506020830151610fce6020860182610f8d565b508091505092915050565b6000610fe58383610f9c565b905092915050565b6000602082019050919050565b600061100582610ec7565b61100f8185610ed2565b93508360208202850161102185610ee3565b8060005b8581101561105d578484038952815161103e8582610fd9565b945061104983610fed565b925060208a01995050600181019050611025565b50829750879550505050505092915050565b600060208201905081810360008301526110898184610ffa565b905092915050565b6000604051905090565b600080fd5b600080fd5b600073ffffffffffffffffffffffffffffffffffffffff82169050919050565b60006110d0826110a5565b9050919050565b6110e0816110c5565b81146110eb57600080fd5b50565b6000813590506110fd816110d7565b92915050565b6000602082840312156111195761111861109b565b5b6000611127848285016110ee565b91505092915050565b60008115159050919050565b61114581611130565b82525050565b6000602082019050611160600083018461113c565b92915050565b61116f81610f83565b811461117a57600080fd5b50565b60008135905061118c81611166565b92915050565b6000602082840312156111a8576111a761109b565b5b60006111b68482850161117d565b91505092915050565b600082825260208201905092915050565b60006111db82610ef3565b6111e581856111bf565b93506111f5818560208601610f0f565b6111fe81610f39565b840191505092915050565b61121281610f83565b82525050565b6000604082019050818103600083015261123281856111d0565b90506112416020830184611209565b9392505050565b600080fd5b600080fd5b7f4e487b7100000000000000000000000000000000000000000000000000000000600052604160045260246000fd5b61128a82610f39565b810181811067ffffffffffffffff821117156112a9576112a8611252565b5b80604052505050565b60006112bc611091565b90506112c88282611281565b919050565b600067ffffffffffffffff8211156112e8576112e7611252565b5b6112f182610f39565b9050602081019050919050565b82818337600083830152505050565b600061132061131b846112cd565b6112b2565b90508281526020810184848401111561133c5761133b61124d565b5b6113478482856112fe565b509392505050565b600082601f83011261136457611363611248565b5b813561137484826020860161130d565b91505092915050565b6000602082840312156113935761139261109b565b5b600082013567ffffffffffffffff8111156113b1576113b06110a0565b5b6113bd8482850161134f565b91505092915050565b600067ffffffffffffffff8211156113e1576113e0611252565b5b602082029050602081019050919050565b600080fd5b600061140a611405846113c6565b6112b2565b9050808382526020820190506020840283018581111561142d5761142c6113f2565b5b835b818110156114565780611442888261117d565b84526020840193505060208101905061142f565b5050509392505050565b600082601f83011261147557611474611248565b5b81356114858482602086016113f7565b91505092915050565b6000602082840312156114a4576114a361109b565b5b600082013567ffffffffffffffff8111156114c2576114c16110a0565b5b6114ce84828501611460565b91505092915050565b60006020820190506114ec6000830184611209565b92915050565b600067ffffffffffffffff82111561150d5761150c611252565b5b61151682610f39565b9050602081019050919050565b6000611536611531846114f2565b6112b2565b9050828152602081018484840111156115525761155161124d565b5b61155d8482856112fe565b509392505050565b600082601f83011261157a57611579611248565b5b813561158a848260208601611523565b91505092915050565b6000819050919050565b6115a681611593565b81146115b157600080fd5b50565b6000813590506115c38161159d565b92915050565b600080604083850312156115e0576115df61109b565b5b600083013567ffffffffffffffff8111156115fe576115fd6110a0565b5b61160a85828601611565565b925050602061161b858286016115b4565b9150509250929050565b61162e816110c5565b82525050565b60006020820190506116496000830184611625565b92915050565b600081519050919050565b600082825260208201905092915050565b60006116768261164f565b611680818561165a565b9350611690818560208601610f0f565b61169981610f39565b840191505092915050565b6116ad81611593565b82525050565b600060408201905081810360008301526116cd818561166b565b90506116dc60208301846116a4565b9392505050565b7f4e487b7100000000000000000000000000000000000000000000000000000000600052602260045260246000fd5b6000600282049050600182168061172a57607f821691505b60208210810361173d5761173c6116e3565b5b50919050565b7f4f6e6c7920617574686f726974792063616e20706572666f726d20746869732060008201527f616374696f6e0000000000000000000000000000000000000000000000000000602082015250565b600061179f6026836111bf565b91506117aa82611743565b604082019050919050565b600060208201905081810360008301526117ce81611792565b9050919050565b7f43616e6e6f7420726567697374657220647572696e6720656c656374696f6e00600082015250565b600061180b601f836111bf565b9150611816826117d5565b602082019050919050565b6000602082019050818103600083015261183a816117fe565b9050919050565b7f43616e6e6f74206164642063616e64696461746520647572696e6720656c656360008201527f74696f6e00000000000000000000000000000000000000000000000000000000602082015250565b600061189d6024836111bf565b91506118a882611841565b604082019050919050565b600060208201905081810360008301526118cc81611890565b9050919050565b60008190508160005260206000209050919050565b60006020601f8301049050919050565b600082821b905092915050565b6000600883026119357fffffffffffffffffffffffffffffffffffffffffffffffffffffffffffffffff826118f8565b61193f86836118f8565b95508019841693508086168417925050509392505050565b6000819050919050565b600061197c61197761197284610f83565b611957565b610f83565b9050919050565b6000819050919050565b61199683611961565b6119aa6119a282611983565b848454611905565b825550505050565b600090565b6119bf6119b2565b6119ca81848461198d565b505050565b5b818110156119ee576119e36000826119b7565b6001810190506119d0565b5050565b601f821115611a3357611a04816118d3565b611a0d846118e8565b81016020851015611a1c578190505b611a30611a28856118e8565b8301826119cf565b50505b505050565b600082821c905092915050565b6000611a5660001984600802611a38565b1980831691505092915050565b6000611a6f8383611a45565b9150826002028217905092915050565b611a8882610ef3565b67ffffffffffffffff811115611aa157611aa0611252565b5b611aab8254611712565b611ab68282856119f2565b600060209050601f831160018114611ae95760008415611ad7578287015190505b611ae18582611a63565b865550611b49565b601f198416611af7866118d3565b60005b82811015611b1f57848901518255600182019150602085019450602081019050611afa565b86831015611b3c5784890151611b38601f891682611a45565b8355505b6001600288020188555050505b505050505050565b7f456c656374696f6e206e6f742061637469766500000000000000000000000000600082015250565b6000611b876013836111bf565b9150611b9282611b51565b602082019050919050565b60006020820190508181036000830152611bb681611b7a565b9050919050565b7f456c656374696f6e20616c726561647920616374697665000000000000000000600082015250565b6000611bf36017836111bf565b9150611bfe82611bbd565b602082019050919050565b60006020820190508181036000830152611c2281611be6565b9050919050565b7f4e6f2063616e6469646174657300000000000000000000000000000000000000600082015250565b6000611c5f600d836111bf565b9150611c6a82611c29565b602082019050919050565b60006020820190508181036000830152611c8e81611c52565b9050919050565b7f4e487b7100000000000000000000000000000000000000000000000000000000600052601160045260246000fd5b6000611ccf82610f83565b9150611cda83610f83565b9250828201905080821115611cf257611cf1611c95565b5b92915050565b7f456c656374696f6e206d757374206265206f7665720000000000000000000000600082015250565b6000611d2e6015836111bf565b9150611d3982611cf8565b602082019050919050565b60006020820190508181036000830152611d5d81611d21565b9050919050565b7f496e76616c69642061727261792073697a650000000000000000000000000000600082015250565b6000611d9a6012836111bf565b9150611da582611d64565b602082019050919050565b60006020820190508181036000830152611dc981611d8d565b9050919050565b7f4e487b7100000000000000000000000000000000000000000000000000000000600052603260045260246000fd5b6000611e0a82610f83565b91507fffffffffffffffffffffffffffffffffffffffffffffffffffffffffffffffff8203611e3c57611e3b611c95565b5b600182019050919050565b7f456c656374696f6e2068617320656e6465640000000000000000000000000000600082015250565b6000611e7d6012836111bf565b9150611e8882611e47565b602082019050919050565b60006020820190508181036000830152611eac81611e70565b9050919050565b7f4e6f742061207265676973746572656420766f74657200000000000000000000600082015250565b6000611ee96016836111bf565b9150611ef482611eb3565b602082019050919050565b60006020820190508181036000830152611f1881611edc565b9050919050565b7f416c726561647920766f74656400000000000000000000000000000000000000600082015250565b6000611f55600d836111bf565b9150611f6082611f1f565b602082019050919050565b60006020820190508181036000830152611f8481611f48565b9050919050565b60008190508160005260206000209050919050565b601f821115611fe157611fb281611f8b565b611fbb846118e8565b81016020851015611fca578190505b611fde611fd6856118e8565b8301826119cf565b50505b505050565b611fef8261164f565b67ffffffffffffffff81111561200857612007611252565b5b6120128254611712565b61201d828285611fa0565b600060209050601f831160018114612050576000841561203e578287015190505b6120488582611a63565b8655506120b0565b601f19841661205e86611f8b565b60005b8281101561208657848901518255600182019150602085019450602081019050612061565b868310156120a3578489015161209f601f891682611a45565b8355505b6001600288020188555050505b50505050505056fea264697066735822122012effd0a73c115533ecd46b1820a6e7ce05b0830712364a007238c6faa59846664736f6c63430008140033",
  "linkReferences": {},
  "deployedLinkReferences": {}
}