{
  "_format": "hh-sol-artifact-1",
  "contractName": "Voting",
  "sourceName": "contracts/voting.sol",
  "abi": [
    {
      "inputs": [],
      "stateMutability": "nonpayable",
      "type": "constructor"
    },
    {
      "anonymous": false,
      "inputs": [],
      "name": "ElectionEnded",
      "type": "event"
    },
    {
      "anonymous": false,
      "inputs": [
        {
          "indexed": false,
          "internalType": "uint256",
          "name": "endTime",
          "type": "uint256"
        }
      ],
      "name": "ElectionStarted",
      "type": "event"
    },
    {
      "anonymous": false,
      "inputs": [
        {
          "indexed": true,
          "internalType": "address",
          "name": "voter",
          "type": "address"
        },
        {
          "indexed": false,
          "internalType": "bytes32",
          "name": "commitment",
          "type": "bytes32"
        }
      ],
      "name": "VoteCasted",
      "type": "event"
    },
    {
      "anonymous": false,
      "inputs": [
        {
          "indexed": false,
          "internalType": "address",
          "name": "voter",
          "type": "address"
        }
      ],
      "name": "VoterRegistered",
      "type": "event"
    },
    {
      "inputs": [
        {
          "internalType": "string",
          "name": "name",
          "type": "string"
        }
      ],
      "name": "addCandidate",
      "outputs": [],
      "stateMutability": "nonpayable",
      "type": "function"
    },
    {
      "inputs": [],
      "name": "authority",
      "outputs": [
        {
          "internalType": "address",
          "name": "",
          "type": "address"
        }
      ],
      "stateMutability": "view",
      "type": "function"
    },
    {
      "inputs": [
        {
          "internalType": "uint256",
          "name": "",
          "type": "uint256"
        }
      ],
      "name": "candidates",
      "outputs": [
        {
          "internalType": "string",
          "name": "name",
          "type": "string"
        },
        {
          "internalType": "uint256",
          "name": "voteCount",
          "type": "uint256"
        }
      ],
      "stateMutability": "view",
      "type": "function"
    },
    {
      "inputs": [
        {
          "internalType": "bytes",
          "name": "encryptedBallot",
          "type": "bytes"
        },
        {
          "internalType": "bytes32",
          "name": "commitment",
          "type": "bytes32"
        }
      ],
      "name": "castVote",
      "outputs": [],
      "stateMutability": "nonpayable",
      "type": "function"
    },
    {
      "inputs": [],
      "name": "electionActive",
      "outputs": [
        {
          "internalType": "bool",
          "name": "",
          "type": "bool"
        }
      ],
      "stateMutability": "view",
      "type": "function"
    },
    {
      "inputs": [],
      "name": "electionEndTime",
      "outputs": [
        {
          "internalType": "uint256",
          "name": "",
          "type": "uint256"
        }
      ],
      "stateMutability": "view",
      "type": "function"
    },
    {
      "inputs": [
        {
          "internalType": "uint256",
          "name": "",
          "type": "uint256"
        }
      ],
      "name": "encryptedVotes",
      "outputs": [
        {
          "internalType": "bytes",
          "name": "",
          "type": "bytes"
        }
      ],
      "stateMutability": "view",
      "type": "function"
    },
    {
      "inputs": [],
      "name": "endElection",
      "outputs": [],
      "stateMutability": "nonpayable",
      "type": "function"
    },
    {
      "inputs": [],
      "name": "getCandidates",
      "outputs": [
        {
          "components": [
            {
              "internalType": "string",
              "name": "name",
              "type": "string"
            },
            {
              "internalType": "uint256",
              "name": "voteCount",
              "type": "uint256"
            }
          ],
          "internalType": "struct Voting.Candidate[]",
          "name": "",
          "type": "tuple[]"
        }
      ],
      "stateMutability": "view",
      "type": "function"
    },
    {
      "inputs": [],
      "name": "getEncryptedVotes",
      "outputs": [
        {
          "internalType": "bytes[]",
          "name": "",
          "type": "bytes[]"
        }
      ],
      "stateMutability": "view",
      "type": "function"
    },
    {
      "inputs": [],
      "name": "getTotalVotes",
      "outputs": [
        {
          "internalType": "uint256",
          "name": "",
          "type": "uint256"
        }
      ],
      "stateMutability": "view",
      "type": "function"
    },
    {
      "inputs": [
        {
          "internalType": "address",
          "name": "",
          "type": "address"
        }
      ],
      "name": "hasVoted",
      "outputs": [
        {
          "internalType": "bool",
          "name": "",
          "type": "bool"
        }
      ],
      "stateMutability": "view",
      "type": "function"
    },
    {
      "inputs": [
        {
          "internalType": "address",
          "name": "",
          "type": "address"
        }
      ],
      "name": "isRegistered",
      "outputs": [
        {
          "internalType": "bool",
          "name": "",
          "type": "bool"
        }
      ],
      "stateMutability": "view",
      "type": "function"
    },
    {
      "inputs": [
        {
          "internalType": "uint256[]",
          "name": "voteCounts",
          "type": "uint256[]"
        }
      ],
      "name": "publishResults",
      "outputs": [],
      "stateMutability": "nonpayable",
      "type": "function"
    },
    {
      "inputs": [
        {
          "internalType": "address",
          "name": "voter",
          "type": "address"
        }
      ],
      "name": "registerVoter",
      "outputs": [],
      "stateMutability": "nonpayable",
      "type": "function"
    },
    {
      "inputs": [
        {
          "internalType": "uint256",
          "name": "durationSeconds",
          "type": "uint256"
        }
      ],
      "name": "startElection",
      "outputs": [],
      "stateMutability": "nonpayable",
      "type": "function"
    },
    {
      "inputs": [
        {
          "internalType": "bytes32",
          "name": "",
          "type": "bytes32"
        }
      ],
      "name": "usedCommitments",
      "outputs": [
        {
          "internalType": "bool",
          "name": "",
          "type": "bool"
        }
      ],
      "stateMutability": "view",
      "type": "function"
    }
  ],
  "bytecode": "0x6080604052348015600f57600080fd5b50600080546001600160a01b0319163317905561119f806100316000396000f3fe608060405234801561001057600080fd5b506004361061010b5760003560e01c806384d1d91e116100a25780639e136e64116100715780639e136e6414610236578063b9b189091461023f578063bf7e214f14610252578063c3c5a5471461027d578063fde315bd146102a057600080fd5b806384d1d91e146101d957806391402039146101ec5780639a0e7d661461020f5780639a6efcc01461022157600080fd5b8063462e91ec116100de578063462e91ec1461019757806359f78468146101aa5780636d32dc4b146101b25780637ed628bb146101c557600080fd5b806306a49fce1461011057806309eef43e1461012e5780633477ee2e1461016157806338db6dd314610182575b600080fd5b6101186102c0565b6040516101259190610c6f565b60405180910390f35b61015161013c366004610ce8565b60046020526000908152604090205460ff1681565b6040519015158152602001610125565b61017461016f366004610d18565b6103bb565b604051610125929190610d31565b610195610190366004610ce8565b610477565b005b6101956101a5366004610df6565b610563565b6101956105f4565b6101956101c0366004610d18565b610654565b60005461015190600160a01b900460ff1681565b6101956101e7366004610e47565b61071b565b6101516101fa366004610d18565b60056020526000908152604090205460ff1681565b6006545b604051908152602001610125565b610229610836565b6040516101259190610ef8565b61021360015481565b61019561024d366004610f51565b610906565b600054610265906001600160a01b031681565b6040516001600160a01b039091168152602001610125565b61015161028b366004610ce8565b60036020526000908152604090205460ff1681565b6102b36102ae366004610d18565b610b7d565b6040516101259190610faa565b60606002805480602002602001604051908101604052809291908181526020016000905b828210156103b2578382906000526020600020906002020160405180604001604052908160008201805461031790610fbd565b80601f016020809104026020016040519081016040528092919081815260200182805461034390610fbd565b80156103905780601f1061036557610100808354040283529160200191610390565b820191906000526020600020905b81548152906001019060200180831161037357829003601f168201915b50505050508152602001600182015481525050815260200190600101906102e4565b50505050905090565b600281815481106103cb57600080fd5b90600052602060002090600202016000915090508060000180546103ee90610fbd565b80601f016020809104026020016040519081016040528092919081815260200182805461041a90610fbd565b80156104675780601f1061043c57610100808354040283529160200191610467565b820191906000526020600020905b81548152906001019060200180831161044a57829003601f168201915b5050505050908060010154905082565b6000546001600160a01b031633146104aa5760405162461bcd60e51b81526004016104a190610ff7565b60405180910390fd5b6001600160a01b03811660009081526003602052604090205460ff16156105085760405162461bcd60e51b8152602060048201526012602482015271105b1c9958591e481c9959da5cdd195c995960721b60448201526064016104a1565b6001600160a01b038116600081815260036020908152604091829020805460ff1916600117905590519182527fb6be2187d059cc2a55fe29e0e503b566e1e0f8c8780096e185429350acffd3dd91015b60405180910390a150565b6000546001600160a01b0316331461058d5760405162461bcd60e51b81526004016104a190610ff7565b604080518082019091528181526000602082018190526002805460018101825591819052825191027f405787fa12a823e0f2b7631cc41b3ba8828b3321ca811111fa75cd3aa3bb5ace019081906105e4908261106d565b5060208201518160010155505050565b6000546001600160a01b0316331461061e5760405162461bcd60e51b81526004016104a190610ff7565b6000805460ff60a01b191681556040517f66ec723071e4bb646f7b35d31bc2dee8510979bd8c180edd0690d4f5e802f1e49190a1565b6000546001600160a01b0316331461067e5760405162461bcd60e51b81526004016104a190610ff7565b600054600160a01b900460ff16156106c95760405162461bcd60e51b815260206004820152600e60248201526d416c72656164792061637469766560901b60448201526064016104a1565b6000805460ff60a01b1916600160a01b1790556106e6814261112c565b60018190556040519081527f159eee87222a0489c529f2153c26ad65d718f2cc33ebaa8d399d1dd5b39facaa90602001610558565b6000546001600160a01b031633146107455760405162461bcd60e51b81526004016104a190610ff7565b600054600160a01b900460ff16156107975760405162461bcd60e51b8152602060048201526015602482015274456c656374696f6e207374696c6c2061637469766560581b60448201526064016104a1565b6002548151146107da5760405162461bcd60e51b815260206004820152600e60248201526d086deeadce840dad2e6dac2e8c6d60931b60448201526064016104a1565b60005b600254811015610832578181815181106107f9576107f9611153565b60200260200101516002828154811061081457610814611153565b600091825260209091206001600290920201810191909155016107dd565b5050565b60606006805480602002602001604051908101604052809291908181526020016000905b828210156103b257838290600052602060002001805461087990610fbd565b80601f01602080910402602001604051908101604052809291908181526020018280546108a590610fbd565b80156108f25780601f106108c7576101008083540402835291602001916108f2565b820191906000526020600020905b8154815290600101906020018083116108d557829003601f168201915b50505050508152602001906001019061085a565b600054600160a01b900460ff166109555760405162461bcd60e51b8152602060048201526013602482015272456c656374696f6e206e6f742061637469766560681b60448201526064016104a1565b60015442106109975760405162461bcd60e51b815260206004820152600e60248201526d115b1958dd1a5bdb88195b99195960921b60448201526064016104a1565b3360009081526003602052604090205460ff166109e75760405162461bcd60e51b815260206004820152600e60248201526d139bdd081c9959da5cdd195c995960921b60448201526064016104a1565b3360009081526004602052604090205460ff1615610a375760405162461bcd60e51b815260206004820152600d60248201526c105b1c9958591e481d9bdd1959609a1b60448201526064016104a1565b60008181526005602052604090205460ff1615610a8a5760405162461bcd60e51b815260206004820152601160248201527010dbdb5b5a5d1b595b9d081c995d5cd959607a1b60448201526064016104a1565b815160208301208114610ad55760405162461bcd60e51b8152602060048201526013602482015272086dedadad2e8dacadce840dad2e6dac2e8c6d606b1b60448201526064016104a1565b3360009081526004602090815260408083208054600160ff1991821681179092558585526005909352908320805490921681179091556006805491820181559091527ff652222313e28459528d920b65115c16c04f3efc82aaedc97be59f3f377c0d3f01610b43838261106d565b5060405181815233907f50218651145bac920efccd62901c5dd1dafde34b5ff1ac66474a4cd58c42dfe99060200160405180910390a25050565b60068181548110610b8d57600080fd5b906000526020600020016000915090508054610ba890610fbd565b80601f0160208091040260200160405190810160405280929190818152602001828054610bd490610fbd565b8015610c215780601f10610bf657610100808354040283529160200191610c21565b820191906000526020600020905b815481529060010190602001808311610c0457829003601f168201915b505050505081565b6000815180845260005b81811015610c4f57602081850181015186830182015201610c33565b506000602082860101526020601f19601f83011685010191505092915050565b6000602082016020835280845180835260408501915060408160051b86010192506020860160005b82811015610cdc57603f198786030184528151805160408752610cbd6040880182610c29565b6020928301519783019790975250938401939190910190600101610c97565b50929695505050505050565b600060208284031215610cfa57600080fd5b81356001600160a01b0381168114610d1157600080fd5b9392505050565b600060208284031215610d2a57600080fd5b5035919050565b604081526000610d446040830185610c29565b90508260208301529392505050565b634e487b7160e01b600052604160045260246000fd5b604051601f8201601f1916810167ffffffffffffffff81118282101715610d9257610d92610d53565b604052919050565b60008067ffffffffffffffff841115610db557610db5610d53565b50601f8301601f1916602001610dca81610d69565b915050828152838383011115610ddf57600080fd5b828260208301376000602084830101529392505050565b600060208284031215610e0857600080fd5b813567ffffffffffffffff811115610e1f57600080fd5b8201601f81018413610e3057600080fd5b610e3f84823560208401610d9a565b949350505050565b600060208284031215610e5957600080fd5b813567ffffffffffffffff811115610e7057600080fd5b8201601f81018413610e8157600080fd5b803567ffffffffffffffff811115610e9b57610e9b610d53565b8060051b610eab60208201610d69565b91825260208184018101929081019087841115610ec757600080fd5b6020850194505b83851015610eed57843580835260209586019590935090910190610ece565b979650505050505050565b6000602082016020835280845180835260408501915060408160051b86010192506020860160005b82811015610cdc57603f19878603018452610f3c858351610c29565b94506020938401939190910190600101610f20565b60008060408385031215610f6457600080fd5b823567ffffffffffffffff811115610f7b57600080fd5b8301601f81018513610f8c57600080fd5b610f9b85823560208401610d9a565b95602094909401359450505050565b602081526000610d116020830184610c29565b600181811c90821680610fd157607f821691505b602082108103610ff157634e487b7160e01b600052602260045260246000fd5b50919050565b6020808252600d908201526c4e6f7420617574686f7269747960981b604082015260600190565b601f82111561106857806000526020600020601f840160051c810160208510156110455750805b601f840160051c820191505b818110156110655760008155600101611051565b50505b505050565b815167ffffffffffffffff81111561108757611087610d53565b61109b816110958454610fbd565b8461101e565b6020601f8211600181146110cf57600083156110b75750848201515b600019600385901b1c1916600184901b178455611065565b600084815260208120601f198516915b828110156110ff57878501518255602094850194600190920191016110df565b508482101561111d5786840151600019600387901b60f8161c191681555b50505050600190811b01905550565b8082018082111561114d57634e487b7160e01b600052601160045260246000fd5b92915050565b634e487b7160e01b600052603260045260246000fdfea264697066735822122010957bbe3d05f346aa02654598daef94fd63cead938dfc4b3f1884c3a13aa78c64736f6c634300081c0033",
  "linkReferences": {},
  "deployedLinkReferences": {}
}