{
  "_format": "hh-sol-artifact-1",
  "contractName": "Voting",
  "sourceName": "contracts/Voting.sol",
  "abi": [
    {
      "inputs": [],
      "stateMutability": "nonpayable",
      "type": "constructor"
    },
    {
      "anonymous": false,
      "inputs": [
        {
          "indexed": true,
          "internalType": "address",
          "name": "voter",
          "type": "address"
        },
        {
          "indexed": false,
          "internalType": "bytes",
          "name": "encryptedBallot",
          "type": "bytes"
        }
      ],
      "name": "VoteCast",
      "type": "event"
    },
    {
      "inputs": [
        {
          "internalType": "string",
          "name": "name",
          "type": "string"
        }
      ],
      "name": "addCandidate",
      "outputs": [],
      "stateMutability": "nonpayable",
      "type": "function"
    },
    {
      "inputs": [],
      "name": "authority",
      "outputs": [
        {
          "internalType": "address",
          "name": "",
          "type": "address"
        }
      ],
      "stateMutability": "view",
      "type": "function"
    },
    {
      "inputs": [
        {
          "internalType": "uint256",
          "name": "",
          "type": "uint256"
        }
      ],
      "name": "candidates",
      "outputs": [
        {
          "internalType": "string",
          "name": "name",
          "type": "string"
        },
        {
          "internalType": "uint256",
          "name": "voteCount",
          "type": "uint256"
        }
      ],
      "stateMutability": "view",
      "type": "function"
    },
    {
      "inputs": [
        {
          "internalType": "bytes",
          "name": "encryptedBallot",
          "type": "bytes"
        },
        {
          "internalType": "bytes32",
          "name": "commitment",
          "type": "bytes32"
        }
      ],
      "name": "castVote",
      "outputs": [],
      "stateMutability": "nonpayable",
      "type": "function"
    },
    {
      "inputs": [],
      "name": "electionActive",
      "outputs": [
        {
          "internalType": "bool",
          "name": "",
          "type": "bool"
        }
      ],
      "stateMutability": "view",
      "type": "function"
    },
    {
      "inputs": [],
      "name": "electionEndTime",
      "outputs": [
        {
          "internalType": "uint256",
          "name": "",
          "type": "uint256"
        }
      ],
      "stateMutability": "view",
      "type": "function"
    },
    {
      "inputs": [],
      "name": "endElection",
      "outputs": [],
      "stateMutability": "nonpayable",
      "type": "function"
    },
    {
      "inputs": [],
      "name": "getCandidates",
      "outputs": [
        {
          "components": [
            {
              "internalType": "string",
              "name": "name",
              "type": "string"
            },
            {
              "internalType": "uint256",
              "name": "voteCount",
              "type": "uint256"
            }
          ],
          "internalType": "struct Voting.Candidate[]",
          "name": "",
          "type": "tuple[]"
        }
      ],
      "stateMutability": "view",
      "type": "function"
    },
    {
      "inputs": [],
      "name": "getTotalVotes",
      "outputs": [
        {
          "internalType": "uint256",
          "name": "",
          "type": "uint256"
        }
      ],
      "stateMutability": "view",
      "type": "function"
    },
    {
      "inputs": [
        {
          "internalType": "address",
          "name": "",
          "type": "address"
        }
      ],
      "name": "hasVoted",
      "outputs": [
        {
          "internalType": "bool",
          "name": "",
          "type": "bool"
        }
      ],
      "stateMutability": "view",
      "type": "function"
    },
    {
      "inputs": [
        {
          "internalType": "address",
          "name": "",
          "type": "address"
        }
      ],
      "name": "isRegisteredVoter",
      "outputs": [
        {
          "internalType": "bool",
          "name": "",
          "type": "bool"
        }
      ],
      "stateMutability": "view",
      "type": "function"
    },
    {
      "inputs": [
        {
          "internalType": "uint256[]",
          "name": "voteCounts",
          "type": "uint256[]"
        }
      ],
      "name": "publishResults",
      "outputs": [],
      "stateMutability": "nonpayable",
      "type": "function"
    },
    {
      "inputs": [
        {
          "internalType": "address",
          "name": "voter",
          "type": "address"
        }
      ],
      "name": "registerVoter",
      "outputs": [],
      "stateMutability": "nonpayable",
      "type": "function"
    },
    {
      "inputs": [
        {
          "internalType": "uint256",
          "name": "durationSeconds",
          "type": "uint256"
        }
      ],
      "name": "startElection",
      "outputs": [],
      "stateMutability": "nonpayable",
      "type": "function"
    },
    {
      "inputs": [
        {
          "internalType": "address",
          "name": "",
          "type": "address"
        }
      ],
      "name": "votes",
      "outputs": [
        {
          "internalType": "bytes",
          "name": "encryptedBallot",
          "type": "bytes"
        },
        {
          "internalType": "bytes32",
          "name": "commitment",
          "type": "bytes32"
        }
      ],
      "stateMutability": "view",
      "type": "function"
    }
  ],
  "bytecode": "0x608060405234801561001057600080fd5b50336000806101000a81548173ffffffffffffffffffffffffffffffffffffffff021916908373ffffffffffffffffffffffffffffffffffffffff16021790555061215e806100606000396000f3fe608060405234801561001057600080fd5b50600436106100f55760003560e01c80637ed628bb11610097578063b9b1890911610066578063b9b189091461024d578063bf7e214f14610269578063d8bff5a514610287578063da36cffe146102b8576100f5565b80637ed628bb146101d757806384d1d91e146101f55780639a0e7d66146102115780639e136e641461022f576100f5565b806338db6dd3116100d357806338db6dd314610179578063462e91ec1461019557806359f78468146101b15780636d32dc4b146101bb576100f5565b806306a49fce146100fa57806309eef43e146101185780633477ee2e14610148575b600080fd5b6101026102e8565b60405161010f91906110bd565b60405180910390f35b610132600480360381019061012d9190611151565b6103e3565b60405161013f9190611199565b60405180910390f35b610162600480360381019061015d91906111e0565b610403565b604051610170929190611266565b60405180910390f35b610193600480360381019061018e9190611151565b6104bf565b005b6101af60048036038101906101aa91906113cb565b6105f8565b005b6101b961073c565b005b6101d560048036038101906101d091906111e0565b610835565b005b6101df61098b565b6040516101ec9190611199565b60405180910390f35b61020f600480360381019061020a91906114dc565b61099e565b005b610219610b2f565b6040516102269190611525565b60405180910390f35b610237610b39565b6040516102449190611525565b60405180910390f35b61026760048036038101906102629190611617565b610b3f565b005b610271610e25565b60405161027e9190611682565b60405180910390f35b6102a1600480360381019061029c9190611151565b610e49565b6040516102af929190611701565b60405180910390f35b6102d260048036038101906102cd9190611151565b610ef5565b6040516102df9190611199565b60405180910390f35b60606002805480602002602001604051908101604052809291908181526020016000905b828210156103da578382906000526020600020906002020160405180604001604052908160008201805461033f90611760565b80601f016020809104026020016040519081016040528092919081815260200182805461036b90611760565b80156103b85780601f1061038d576101008083540402835291602001916103b8565b820191906000526020600020905b81548152906001019060200180831161039b57829003601f168201915b505050505081526020016001820154815250508152602001906001019061030c565b50505050905090565b60046020528060005260406000206000915054906101000a900460ff1681565b6002818154811061041357600080fd5b906000526020600020906002020160009150905080600001805461043690611760565b80601f016020809104026020016040519081016040528092919081815260200182805461046290611760565b80156104af5780601f10610484576101008083540402835291602001916104af565b820191906000526020600020905b81548152906001019060200180831161049257829003601f168201915b5050505050908060010154905082565b60008054906101000a900473ffffffffffffffffffffffffffffffffffffffff1673ffffffffffffffffffffffffffffffffffffffff163373ffffffffffffffffffffffffffffffffffffffff161461054d576040517f08c379a000000000000000000000000000000000000000000000000000000000815260040161054490611803565b60405180910390fd5b600060149054906101000a900460ff161561059d576040517f08c379a00000000000000000000000000000000000000000000000000000000081526004016105949061186f565b60405180910390fd5b6001600360008373ffffffffffffffffffffffffffffffffffffffff1673ffffffffffffffffffffffffffffffffffffffff16815260200190815260200160002060006101000a81548160ff02191690831515021790555050565b60008054906101000a900473ffffffffffffffffffffffffffffffffffffffff1673ffffffffffffffffffffffffffffffffffffffff163373ffffffffffffffffffffffffffffffffffffffff1614610686576040517f08c379a000000000000000000000000000000000000000000000000000000000815260040161067d90611803565b60405180910390fd5b600060149054906101000a900460ff16156106d6576040517f08c379a00000000000000000000000000000000000000000000000000000000081526004016106cd90611901565b60405180910390fd5b6002604051806040016040528083815260200160008152509080600181540180825580915050600190039060005260206000209060020201600090919091909150600082015181600001908161072c9190611acd565b5060208201518160010155505050565b60008054906101000a900473ffffffffffffffffffffffffffffffffffffffff1673ffffffffffffffffffffffffffffffffffffffff163373ffffffffffffffffffffffffffffffffffffffff16146107ca576040517f08c379a00000000000000000000000000000000000000000000000000000000081526004016107c190611803565b60405180910390fd5b600060149054906101000a900460ff16610819576040517f08c379a000000000000000000000000000000000000000000000000000000000815260040161081090611beb565b60405180910390fd5b60008060146101000a81548160ff021916908315150217905550565b60008054906101000a900473ffffffffffffffffffffffffffffffffffffffff1673ffffffffffffffffffffffffffffffffffffffff163373ffffffffffffffffffffffffffffffffffffffff16146108c3576040517f08c379a00000000000000000000000000000000000000000000000000000000081526004016108ba90611803565b60405180910390fd5b600060149054906101000a900460ff1615610913576040517f08c379a000000000000000000000000000000000000000000000000000000000815260040161090a90611c57565b60405180910390fd5b60006002805490501161095b576040517f08c379a000000000000000000000000000000000000000000000000000000000815260040161095290611cc3565b60405180910390fd5b6001600060146101000a81548160ff02191690831515021790555080426109829190611d12565b60018190555050565b600060149054906101000a900460ff1681565b60008054906101000a900473ffffffffffffffffffffffffffffffffffffffff1673ffffffffffffffffffffffffffffffffffffffff163373ffffffffffffffffffffffffffffffffffffffff1614610a2c576040517f08c379a0000000000000000000000000000000000000000000000000000000008152600401610a2390611803565b60405180910390fd5b600060149054906101000a900460ff1615610a7c576040517f08c379a0000000000000000000000000000000000000000000000000000000008152600401610a7390611d92565b60405180910390fd5b600280549050815114610ac4576040517f08c379a0000000000000000000000000000000000000000000000000000000008152600401610abb90611dfe565b60405180910390fd5b60005b600280549050811015610b2b57818181518110610ae757610ae6611e1e565b5b602002602001015160028281548110610b0357610b02611e1e565b5b9060005260206000209060020201600101819055508080610b2390611e4d565b915050610ac7565b5050565b6000600554905090565b60015481565b600060149054906101000a900460ff16610b8e576040517f08c379a0000000000000000000000000000000000000000000000000000000008152600401610b8590611beb565b60405180910390fd5b600154421115610bd3576040517f08c379a0000000000000000000000000000000000000000000000000000000008152600401610bca90611ee1565b60405180910390fd5b600360003373ffffffffffffffffffffffffffffffffffffffff1673ffffffffffffffffffffffffffffffffffffffff16815260200190815260200160002060009054906101000a900460ff16610c5f576040517f08c379a0000000000000000000000000000000000000000000000000000000008152600401610c5690611f4d565b60405180910390fd5b600460003373ffffffffffffffffffffffffffffffffffffffff1673ffffffffffffffffffffffffffffffffffffffff16815260200190815260200160002060009054906101000a900460ff1615610cec576040517f08c379a0000000000000000000000000000000000000000000000000000000008152600401610ce390611fb9565b60405180910390fd5b6001600460003373ffffffffffffffffffffffffffffffffffffffff1673ffffffffffffffffffffffffffffffffffffffff16815260200190815260200160002060006101000a81548160ff021916908315150217905550604051806040016040528083815260200182815250600660003373ffffffffffffffffffffffffffffffffffffffff1673ffffffffffffffffffffffffffffffffffffffff1681526020019081526020016000206000820151816000019081610dad9190612034565b506020820151816001015590505060056000815480929190610dce90611e4d565b91905055503373ffffffffffffffffffffffffffffffffffffffff167f1f42239b48b503e3dfaf0ba9d3094e44ec6412593db709afb46e847fbf35071e83604051610e199190612106565b60405180910390a25050565b60008054906101000a900473ffffffffffffffffffffffffffffffffffffffff1681565b6006602052806000526040600020600091509050806000018054610e6c90611760565b80601f0160208091040260200160405190810160405280929190818152602001828054610e9890611760565b8015610ee55780601f10610eba57610100808354040283529160200191610ee5565b820191906000526020600020905b815481529060010190602001808311610ec857829003601f168201915b5050505050908060010154905082565b60036020528060005260406000206000915054906101000a900460ff1681565b600081519050919050565b600082825260208201905092915050565b6000819050602082019050919050565b600081519050919050565b600082825260208201905092915050565b60005b83811015610f7b578082015181840152602081019050610f60565b60008484015250505050565b6000601f19601f8301169050919050565b6000610fa382610f41565b610fad8185610f4c565b9350610fbd818560208601610f5d565b610fc681610f87565b840191505092915050565b6000819050919050565b610fe481610fd1565b82525050565b600060408301600083015184820360008601526110078282610f98565b915050602083015161101c6020860182610fdb565b508091505092915050565b60006110338383610fea565b905092915050565b6000602082019050919050565b600061105382610f15565b61105d8185610f20565b93508360208202850161106f85610f31565b8060005b858110156110ab578484038952815161108c8582611027565b94506110978361103b565b925060208a01995050600181019050611073565b50829750879550505050505092915050565b600060208201905081810360008301526110d78184611048565b905092915050565b6000604051905090565b600080fd5b600080fd5b600073ffffffffffffffffffffffffffffffffffffffff82169050919050565b600061111e826110f3565b9050919050565b61112e81611113565b811461113957600080fd5b50565b60008135905061114b81611125565b92915050565b600060208284031215611167576111666110e9565b5b60006111758482850161113c565b91505092915050565b60008115159050919050565b6111938161117e565b82525050565b60006020820190506111ae600083018461118a565b92915050565b6111bd81610fd1565b81146111c857600080fd5b50565b6000813590506111da816111b4565b92915050565b6000602082840312156111f6576111f56110e9565b5b6000611204848285016111cb565b91505092915050565b600082825260208201905092915050565b600061122982610f41565b611233818561120d565b9350611243818560208601610f5d565b61124c81610f87565b840191505092915050565b61126081610fd1565b82525050565b60006040820190508181036000830152611280818561121e565b905061128f6020830184611257565b9392505050565b600080fd5b600080fd5b7f4e487b7100000000000000000000000000000000000000000000000000000000600052604160045260246000fd5b6112d882610f87565b810181811067ffffffffffffffff821117156112f7576112f66112a0565b5b80604052505050565b600061130a6110df565b905061131682826112cf565b919050565b600067ffffffffffffffff821115611336576113356112a0565b5b61133f82610f87565b9050602081019050919050565b82818337600083830152505050565b600061136e6113698461131b565b611300565b90508281526020810184848401111561138a5761138961129b565b5b61139584828561134c565b509392505050565b600082601f8301126113b2576113b1611296565b5b81356113c284826020860161135b565b91505092915050565b6000602082840312156113e1576113e06110e9565b5b600082013567ffffffffffffffff8111156113ff576113fe6110ee565b5b61140b8482850161139d565b91505092915050565b600067ffffffffffffffff82111561142f5761142e6112a0565b5b602082029050602081019050919050565b600080fd5b600061145861145384611414565b611300565b9050808382526020820190506020840283018581111561147b5761147a611440565b5b835b818110156114a4578061149088826111cb565b84526020840193505060208101905061147d565b5050509392505050565b600082601f8301126114c3576114c2611296565b5b81356114d3848260208601611445565b91505092915050565b6000602082840312156114f2576114f16110e9565b5b600082013567ffffffffffffffff8111156115105761150f6110ee565b5b61151c848285016114ae565b91505092915050565b600060208201905061153a6000830184611257565b92915050565b600067ffffffffffffffff82111561155b5761155a6112a0565b5b61156482610f87565b9050602081019050919050565b600061158461157f84611540565b611300565b9050828152602081018484840111156115a05761159f61129b565b5b6115ab84828561134c565b509392505050565b600082601f8301126115c8576115c7611296565b5b81356115d8848260208601611571565b91505092915050565b6000819050919050565b6115f4816115e1565b81146115ff57600080fd5b50565b600081359050611611816115eb565b92915050565b6000806040838503121561162e5761162d6110e9565b5b600083013567ffffffffffffffff81111561164c5761164b6110ee565b5b611658858286016115b3565b925050602061166985828601611602565b9150509250929050565b61167c81611113565b82525050565b60006020820190506116976000830184611673565b92915050565b600081519050919050565b600082825260208201905092915050565b60006116c48261169d565b6116ce81856116a8565b93506116de818560208601610f5d565b6116e781610f87565b840191505092915050565b6116fb816115e1565b82525050565b6000604082019050818103600083015261171b81856116b9565b905061172a60208301846116f2565b9392505050565b7f4e487b7100000000000000000000000000000000000000000000000000000000600052602260045260246000fd5b6000600282049050600182168061177857607f821691505b60208210810361178b5761178a611731565b5b50919050565b7f4f6e6c7920617574686f726974792063616e20706572666f726d20746869732060008201527f616374696f6e0000000000000000000000000000000000000000000000000000602082015250565b60006117ed60268361120d565b91506117f882611791565b604082019050919050565b6000602082019050818103600083015261181c816117e0565b9050919050565b7f43616e6e6f7420726567697374657220647572696e6720656c656374696f6e00600082015250565b6000611859601f8361120d565b915061186482611823565b602082019050919050565b600060208201905081810360008301526118888161184c565b9050919050565b7f43616e6e6f74206164642063616e64696461746520647572696e6720656c656360008201527f74696f6e00000000000000000000000000000000000000000000000000000000602082015250565b60006118eb60248361120d565b91506118f68261188f565b604082019050919050565b6000602082019050818103600083015261191a816118de565b9050919050565b60008190508160005260206000209050919050565b60006020601f8301049050919050565b600082821b905092915050565b6000600883026119837fffffffffffffffffffffffffffffffffffffffffffffffffffffffffffffffff82611946565b61198d8683611946565b95508019841693508086168417925050509392505050565b6000819050919050565b60006119ca6119c56119c084610fd1565b6119a5565b610fd1565b9050919050565b6000819050919050565b6119e4836119af565b6119f86119f0826119d1565b848454611953565b825550505050565b600090565b611a0d611a00565b611a188184846119db565b505050565b5b81811015611a3c57611a31600082611a05565b600181019050611a1e565b5050565b601f821115611a8157611a5281611921565b611a5b84611936565b81016020851015611a6a578190505b611a7e611a7685611936565b830182611a1d565b50505b505050565b600082821c905092915050565b6000611aa460001984600802611a86565b1980831691505092915050565b6000611abd8383611a93565b9150826002028217905092915050565b611ad682610f41565b67ffffffffffffffff811115611aef57611aee6112a0565b5b611af98254611760565b611b04828285611a40565b600060209050601f831160018114611b375760008415611b25578287015190505b611b2f8582611ab1565b865550611b97565b601f198416611b4586611921565b60005b82811015611b6d57848901518255600182019150602085019450602081019050611b48565b86831015611b8a5784890151611b86601f891682611a93565b8355505b6001600288020188555050505b505050505050565b7f456c656374696f6e206e6f742061637469766500000000000000000000000000600082015250565b6000611bd560138361120d565b9150611be082611b9f565b602082019050919050565b60006020820190508181036000830152611c0481611bc8565b9050919050565b7f456c656374696f6e20616c726561647920616374697665000000000000000000600082015250565b6000611c4160178361120d565b9150611c4c82611c0b565b602082019050919050565b60006020820190508181036000830152611c7081611c34565b9050919050565b7f4e6f2063616e6469646174657300000000000000000000000000000000000000600082015250565b6000611cad600d8361120d565b9150611cb882611c77565b602082019050919050565b60006020820190508181036000830152611cdc81611ca0565b9050919050565b7f4e487b7100000000000000000000000000000000000000000000000000000000600052601160045260246000fd5b6000611d1d82610fd1565b9150611d2883610fd1565b9250828201905080821115611d4057611d3f611ce3565b5b92915050565b7f456c656374696f6e206d757374206265206f7665720000000000000000000000600082015250565b6000611d7c60158361120d565b9150611d8782611d46565b602082019050919050565b60006020820190508181036000830152611dab81611d6f565b9050919050565b7f496e76616c69642061727261792073697a650000000000000000000000000000600082015250565b6000611de860128361120d565b9150611df382611db2565b602082019050919050565b60006020820190508181036000830152611e1781611ddb565b9050919050565b7f4e487b7100000000000000000000000000000000000000000000000000000000600052603260045260246000fd5b6000611e5882610fd1565b91507fffffffffffffffffffffffffffffffffffffffffffffffffffffffffffffffff8203611e8a57611e89611ce3565b5b600182019050919050565b7f456c656374696f6e2068617320656e6465640000000000000000000000000000600082015250565b6000611ecb60128361120d565b9150611ed682611e95565b602082019050919050565b60006020820190508181036000830152611efa81611ebe565b9050919050565b7f4e6f742061207265676973746572656420766f74657200000000000000000000600082015250565b6000611f3760168361120d565b9150611f4282611f01565b602082019050919050565b60006020820190508181036000830152611f6681611f2a565b9050919050565b7f416c726561647920766f74656400000000000000000000000000000000000000600082015250565b6000611fa3600d8361120d565b9150611fae82611f6d565b602082019050919050565b60006020820190508181036000830152611fd281611f96565b9050919050565b60008190508160005260206000209050919050565b601f82111561202f5761200081611fd9565b61200984611936565b81016020851015612018578190505b61202c61202485611936565b830182611a1d565b50505b505050565b61203d8261169d565b67ffffffffffffffff811115612056576120556112a0565b5b6120608254611760565b61206b828285611fee565b600060209050601f83116001811461209e576000841561208c578287015190505b6120968582611ab1565b8655506120fe565b601f1984166120ac86611fd9565b60005b828110156120d4578489015182556001820191506020850194506020810190506120af565b868310156120f157848901516120ed601f891682611a93565b8355505b6001600288020188555050505b505050505050565b6000602082019050818103600083015261212081846116b9565b90509291505056fea2646970667358221220bf39287a1de022c4d32fcdbd838d43fe2576896f49ad17d1f2e735d8ed35f6eb64736f6c63430008140033",
  "linkReferences": {},
  "deployedLinkReferences": {}
}